{
  "contractName": "LandRegistry",
  "abi": [
    {
      "inputs": [],
      "stateMutability": "nonpayable",
      "type": "constructor"
    },
    {
      "anonymous": false,
      "inputs": [
        {
          "indexed": true,
          "internalType": "address",
          "name": "owner",
          "type": "address"
        },
        {
          "indexed": true,
          "internalType": "uint256",
          "name": "propertyId",
          "type": "uint256"
        }
      ],
      "name": "LandAdded",
      "type": "event"
    },
    {
      "inputs": [],
      "name": "propertiesContract",
      "outputs": [
        {
          "internalType": "contract Property",
          "name": "",
          "type": "address"
        }
      ],
      "stateMutability": "view",
      "type": "function",
      "constant": true
    },
    {
      "inputs": [
        {
          "internalType": "uint256",
          "name": "",
          "type": "uint256"
        }
      ],
      "name": "revenueDeptIdToEmployee",
      "outputs": [
        {
          "internalType": "address",
          "name": "",
          "type": "address"
        }
      ],
      "stateMutability": "view",
      "type": "function",
      "constant": true
    },
    {
      "inputs": [
        {
          "internalType": "address",
          "name": "contractAddress",
          "type": "address"
        }
      ],
      "name": "setTransferOwnershipContractAddress",
      "outputs": [],
      "stateMutability": "nonpayable",
      "type": "function"
    },
    {
      "inputs": [
        {
          "internalType": "uint256",
          "name": "_locationId",
          "type": "uint256"
        },
        {
          "internalType": "uint256",
          "name": "_revenueDepartmentId",
          "type": "uint256"
        },
        {
          "internalType": "uint256",
          "name": "_surveyNumber",
          "type": "uint256"
        },
        {
          "internalType": "uint256",
          "name": "_area",
          "type": "uint256"
        }
      ],
      "name": "addLand",
      "outputs": [
        {
          "internalType": "uint256",
          "name": "",
          "type": "uint256"
        }
      ],
      "stateMutability": "nonpayable",
      "type": "function"
    },
    {
      "inputs": [
        {
          "internalType": "uint256",
          "name": "_propertyId",
          "type": "uint256"
        }
      ],
      "name": "getPropertyDetails",
      "outputs": [
        {
          "components": [
            {
              "internalType": "uint256",
              "name": "propertyId",
              "type": "uint256"
            },
            {
              "internalType": "uint256",
              "name": "locationId",
              "type": "uint256"
            },
            {
              "internalType": "uint256",
              "name": "revenueDepartmentId",
              "type": "uint256"
            },
            {
              "internalType": "uint256",
              "name": "surveyNumber",
              "type": "uint256"
            },
            {
              "internalType": "address",
              "name": "owner",
              "type": "address"
            },
            {
              "internalType": "uint256",
              "name": "area",
              "type": "uint256"
            },
            {
              "internalType": "uint256",
              "name": "price",
              "type": "uint256"
            },
            {
              "internalType": "uint256",
              "name": "registeredTime",
              "type": "uint256"
            },
            {
              "internalType": "address",
              "name": "employeeId",
              "type": "address"
            },
            {
              "internalType": "string",
              "name": "scheduledDate",
              "type": "string"
            },
            {
              "internalType": "string",
              "name": "rejectedReason",
              "type": "string"
            },
            {
              "internalType": "enum Property.StateOfProperty",
              "name": "state",
              "type": "uint8"
            }
          ],
          "internalType": "struct Property.Land",
          "name": "",
          "type": "tuple"
        }
      ],
      "stateMutability": "view",
      "type": "function",
      "constant": true
    },
    {
      "inputs": [
        {
          "internalType": "address",
          "name": "_owner",
          "type": "address"
        }
      ],
      "name": "getPropertiesOfOwner",
      "outputs": [
        {
          "components": [
            {
              "internalType": "uint256",
              "name": "propertyId",
              "type": "uint256"
            },
            {
              "internalType": "uint256",
              "name": "locationId",
              "type": "uint256"
            },
            {
              "internalType": "uint256",
              "name": "revenueDepartmentId",
              "type": "uint256"
            },
            {
              "internalType": "uint256",
              "name": "surveyNumber",
              "type": "uint256"
            },
            {
              "internalType": "address",
              "name": "owner",
              "type": "address"
            },
            {
              "internalType": "uint256",
              "name": "area",
              "type": "uint256"
            },
            {
              "internalType": "uint256",
              "name": "price",
              "type": "uint256"
            },
            {
              "internalType": "uint256",
              "name": "registeredTime",
              "type": "uint256"
            },
            {
              "internalType": "address",
              "name": "employeeId",
              "type": "address"
            },
            {
              "internalType": "string",
              "name": "scheduledDate",
              "type": "string"
            },
            {
              "internalType": "string",
              "name": "rejectedReason",
              "type": "string"
            },
            {
              "internalType": "enum Property.StateOfProperty",
              "name": "state",
              "type": "uint8"
            }
          ],
          "internalType": "struct Property.Land[]",
          "name": "",
          "type": "tuple[]"
        }
      ],
      "stateMutability": "view",
      "type": "function",
      "constant": true
    },
    {
      "inputs": [
        {
          "internalType": "uint256",
          "name": "_revenueDeptId",
          "type": "uint256"
        }
      ],
      "name": "getPropertiesByRevenueDeptId",
      "outputs": [
        {
          "components": [
            {
              "internalType": "uint256",
              "name": "propertyId",
              "type": "uint256"
            },
            {
              "internalType": "uint256",
              "name": "locationId",
              "type": "uint256"
            },
            {
              "internalType": "uint256",
              "name": "revenueDepartmentId",
              "type": "uint256"
            },
            {
              "internalType": "uint256",
              "name": "surveyNumber",
              "type": "uint256"
            },
            {
              "internalType": "address",
              "name": "owner",
              "type": "address"
            },
            {
              "internalType": "uint256",
              "name": "area",
              "type": "uint256"
            },
            {
              "internalType": "uint256",
              "name": "price",
              "type": "uint256"
            },
            {
              "internalType": "uint256",
              "name": "registeredTime",
              "type": "uint256"
            },
            {
              "internalType": "address",
              "name": "employeeId",
              "type": "address"
            },
            {
              "internalType": "string",
              "name": "scheduledDate",
              "type": "string"
            },
            {
              "internalType": "string",
              "name": "rejectedReason",
              "type": "string"
            },
            {
              "internalType": "enum Property.StateOfProperty",
              "name": "state",
              "type": "uint8"
            }
          ],
          "internalType": "struct Property.Land[]",
          "name": "",
          "type": "tuple[]"
        }
      ],
      "stateMutability": "view",
      "type": "function",
      "constant": true
    },
    {
      "inputs": [
        {
          "internalType": "uint256",
          "name": "revenueDeptId",
          "type": "uint256"
        },
        {
          "internalType": "address",
          "name": "employeeAddress",
          "type": "address"
        }
      ],
      "name": "mapRevenueDeptIdToEmployee",
      "outputs": [],
      "stateMutability": "nonpayable",
      "type": "function"
    },
    {
      "inputs": [
        {
          "internalType": "uint256",
          "name": "_propertyId",
          "type": "uint256"
        }
      ],
      "name": "verifyProperty",
      "outputs": [],
      "stateMutability": "nonpayable",
      "type": "function"
    },
    {
      "inputs": [
        {
          "internalType": "uint256",
          "name": "_propertyId",
          "type": "uint256"
        },
        {
          "internalType": "string",
          "name": "_reason",
          "type": "string"
        }
      ],
      "name": "rejectProperty",
      "outputs": [],
      "stateMutability": "nonpayable",
      "type": "function"
    },
    {
      "inputs": [
        {
          "internalType": "uint256",
          "name": "_propertyId",
          "type": "uint256"
        },
        {
          "internalType": "address",
          "name": "newOwner",
          "type": "address"
        }
      ],
      "name": "transferOwnership",
      "outputs": [],
      "stateMutability": "nonpayable",
      "type": "function"
    },
    {
      "inputs": [],
      "name": "getPropertiesContract",
      "outputs": [
        {
          "internalType": "address",
          "name": "",
          "type": "address"
        }
      ],
      "stateMutability": "view",
      "type": "function",
      "constant": true
    }
  ],
  "bytecode": "0x60806040526000600160146101000a81548160ff02191690831515021790555034801561002b57600080fd5b50336000806101000a81548173ffffffffffffffffffffffffffffffffffffffff021916908373ffffffffffffffffffffffffffffffffffffffff1602179055506000600160006101000a81548173ffffffffffffffffffffffffffffffffffffffff021916908373ffffffffffffffffffffffffffffffffffffffff1602179055506000600160146101000a81548160ff0219169083151502179055506040516100d590610137565b604051809103906000f0801580156100f1573d6000803e3d6000fd5b50600260006101000a81548173ffffffffffffffffffffffffffffffffffffffff021916908373ffffffffffffffffffffffffffffffffffffffff160217905550610145565b611fd6806200220a83390190565b6120b580620001556000396000f3fe608060405234801561001057600080fd5b50600436106100b45760003560e01c80634212a8ae116100715780634212a8ae1461018b578063677ff942146101a7578063a6262ba3146101d7578063b9fe2ff4146101f3578063ddef358d14610211578063e90b6c7214610241576100b4565b806301da8a48146100b95780630ce89b46146100e95780630cf36e5714610105578063126dbe431461012157806329507f73146101515780633aeb6d761461016d575b600080fd5b6100d360048036038101906100ce91906111de565b610271565b6040516100e09190611254565b60405180910390f35b61010360048036038101906100fe91906113b5565b610412565b005b61011f600480360381019061011a919061146f565b610552565b005b61013b6004803603810190610136919061149c565b610606565b60405161014891906116e8565b60405180910390f35b61016b6004803603810190610166919061170a565b6106b6565b005b6101756109ef565b60405161018291906117a9565b60405180910390f35b6101a560048036038101906101a0919061149c565b610a15565b005b6101c160048036038101906101bc919061146f565b610b52565b6040516101ce9190611991565b60405180910390f35b6101f160048036038101906101ec919061170a565b610d42565b005b6101fb610e26565b60405161020891906119c2565b60405180910390f35b61022b6004803603810190610226919061149c565b610e50565b6040516102389190611991565b60405180910390f35b61025b6004803603810190610256919061149c565b611014565b60405161026891906119c2565b60405180910390f35b6000803390506000600260009054906101000a900473ffffffffffffffffffffffffffffffffffffffff1673ffffffffffffffffffffffffffffffffffffffff16630240258988888886896040518663ffffffff1660e01b81526004016102dc9594939291906119dd565b6020604051808303816000875af11580156102fb573d6000803e3d6000fd5b505050506040513d601f19601f8201168201806040525081019061031f9190611a45565b9050600360008373ffffffffffffffffffffffffffffffffffffffff1673ffffffffffffffffffffffffffffffffffffffff16815260200190815260200160002081908060018154018082558091505060019003906000526020600020016000909190919091505560046000878152602001908152602001600020819080600181540180825580915050600190039060005260206000200160009091909190915055808273ffffffffffffffffffffffffffffffffffffffff167f6273d4d594c3e9579a60a0212122fd582600ec6505e091f5863299f8c7c17e4f60405160405180910390a38092505050949350505050565b61041b82611047565b6005600082815260200190815260200160002060009054906101000a900473ffffffffffffffffffffffffffffffffffffffff1673ffffffffffffffffffffffffffffffffffffffff163373ffffffffffffffffffffffffffffffffffffffff16146104bc576040517f08c379a00000000000000000000000000000000000000000000000000000000081526004016104b390611af5565b60405180910390fd5b600260009054906101000a900473ffffffffffffffffffffffffffffffffffffffff1673ffffffffffffffffffffffffffffffffffffffff166397f15c028433856040518463ffffffff1660e01b815260040161051b93929190611b4e565b600060405180830381600087803b15801561053557600080fd5b505af1158015610549573d6000803e3d6000fd5b50505050505050565b60001515600160149054906101000a900460ff161515146105a8576040517f08c379a000000000000000000000000000000000000000000000000000000000815260040161059f90611bd8565b60405180910390fd5b80600160006101000a81548173ffffffffffffffffffffffffffffffffffffffff021916908373ffffffffffffffffffffffffffffffffffffffff16021790555060018060146101000a81548160ff02191690831515021790555050565b61060e6110f5565b600260009054906101000a900473ffffffffffffffffffffffffffffffffffffffff1673ffffffffffffffffffffffffffffffffffffffff1663fbb62fe7836040518263ffffffff1660e01b81526004016106699190611254565b600060405180830381865afa158015610686573d6000803e3d6000fd5b505050506040513d6000823e3d601f19601f820116820180604052508101906106af9190611e06565b9050919050565b600160009054906101000a900473ffffffffffffffffffffffffffffffffffffffff1673ffffffffffffffffffffffffffffffffffffffff163373ffffffffffffffffffffffffffffffffffffffff1614610746576040517f08c379a000000000000000000000000000000000000000000000000000000000815260040161073d90611ec1565b60405180910390fd5b6000600260009054906101000a900473ffffffffffffffffffffffffffffffffffffffff1673ffffffffffffffffffffffffffffffffffffffff1663fbb62fe7846040518263ffffffff1660e01b81526004016107a39190611254565b600060405180830381865afa1580156107c0573d6000803e3d6000fd5b505050506040513d6000823e3d601f19601f820116820180604052508101906107e99190611e06565b6080015190506000600360008373ffffffffffffffffffffffffffffffffffffffff1673ffffffffffffffffffffffffffffffffffffffff168152602001908152602001600020905060005b81805490508110156108f3578482828154811061085557610854611ee1565b5b9060005260206000200154036108e05781600183805490506108779190611f3f565b8154811061088857610887611ee1565b5b90600052602060002001548282815481106108a6576108a5611ee1565b5b9060005260206000200181905550818054806108c5576108c4611f73565b5b600190038181906000526020600020016000905590556108f3565b80806108eb90611fa2565b915050610835565b50600360008473ffffffffffffffffffffffffffffffffffffffff1673ffffffffffffffffffffffffffffffffffffffff168152602001908152602001600020849080600181540180825580915050600190039060005260206000200160009091909190915055600260009054906101000a900473ffffffffffffffffffffffffffffffffffffffff1673ffffffffffffffffffffffffffffffffffffffff16637192711f85856040518363ffffffff1660e01b81526004016109b7929190611fea565b600060405180830381600087803b1580156109d157600080fd5b505af11580156109e5573d6000803e3d6000fd5b5050505050505050565b600260009054906101000a900473ffffffffffffffffffffffffffffffffffffffff1681565b610a1e81611047565b6005600082815260200190815260200160002060009054906101000a900473ffffffffffffffffffffffffffffffffffffffff1673ffffffffffffffffffffffffffffffffffffffff163373ffffffffffffffffffffffffffffffffffffffff1614610abf576040517f08c379a0000000000000000000000000000000000000000000000000000000008152600401610ab690611af5565b60405180910390fd5b600260009054906101000a900473ffffffffffffffffffffffffffffffffffffffff1673ffffffffffffffffffffffffffffffffffffffff1663f4eff9da83336040518363ffffffff1660e01b8152600401610b1c929190611fea565b600060405180830381600087803b158015610b3657600080fd5b505af1158015610b4a573d6000803e3d6000fd5b505050505050565b60606000600360008473ffffffffffffffffffffffffffffffffffffffff1673ffffffffffffffffffffffffffffffffffffffff168152602001908152602001600020805480602002602001604051908101604052809291908181526020018280548015610bdf57602002820191906000526020600020905b815481526020019060010190808311610bcb575b505050505090506000815167ffffffffffffffff811115610c0357610c0261128a565b5b604051908082528060200260200182016040528015610c3c57816020015b610c296110f5565b815260200190600190039081610c215790505b50905060005b8251811015610d3757600260009054906101000a900473ffffffffffffffffffffffffffffffffffffffff1673ffffffffffffffffffffffffffffffffffffffff1663fbb62fe7848381518110610c9c57610c9b611ee1565b5b60200260200101516040518263ffffffff1660e01b8152600401610cc09190611254565b600060405180830381865afa158015610cdd573d6000803e3d6000fd5b505050506040513d6000823e3d601f19601f82011682018060405250810190610d069190611e06565b828281518110610d1957610d18611ee1565b5b60200260200101819052508080610d2f90611fa2565b915050610c42565b508092505050919050565b60008054906101000a900473ffffffffffffffffffffffffffffffffffffffff1673ffffffffffffffffffffffffffffffffffffffff163373ffffffffffffffffffffffffffffffffffffffff1614610dd0576040517f08c379a0000000000000000000000000000000000000000000000000000000008152600401610dc79061205f565b60405180910390fd5b806005600084815260200190815260200160002060006101000a81548173ffffffffffffffffffffffffffffffffffffffff021916908373ffffffffffffffffffffffffffffffffffffffff1602179055505050565b6000600260009054906101000a900473ffffffffffffffffffffffffffffffffffffffff16905090565b6060600060046000848152602001908152602001600020805480602002602001604051908101604052809291908181526020018280548015610eb157602002820191906000526020600020905b815481526020019060010190808311610e9d575b505050505090506000815167ffffffffffffffff811115610ed557610ed461128a565b5b604051908082528060200260200182016040528015610f0e57816020015b610efb6110f5565b815260200190600190039081610ef35790505b50905060005b825181101561100957600260009054906101000a900473ffffffffffffffffffffffffffffffffffffffff1673ffffffffffffffffffffffffffffffffffffffff1663fbb62fe7848381518110610f6e57610f6d611ee1565b5b60200260200101516040518263ffffffff1660e01b8152600401610f929190611254565b600060405180830381865afa158015610faf573d6000803e3d6000fd5b505050506040513d6000823e3d601f19601f82011682018060405250810190610fd89190611e06565b828281518110610feb57610fea611ee1565b5b6020026020010181905250808061100190611fa2565b915050610f14565b508092505050919050565b60056020528060005260406000206000915054906101000a900473ffffffffffffffffffffffffffffffffffffffff1681565b6000600260009054906101000a900473ffffffffffffffffffffffffffffffffffffffff1673ffffffffffffffffffffffffffffffffffffffff1663fbb62fe7836040518263ffffffff1660e01b81526004016110a49190611254565b600060405180830381865afa1580156110c1573d6000803e3d6000fd5b505050506040513d6000823e3d601f19601f820116820180604052508101906110ea9190611e06565b604001519050919050565b60405180610180016040528060008152602001600081526020016000815260200160008152602001600073ffffffffffffffffffffffffffffffffffffffff168152602001600081526020016000815260200160008152602001600073ffffffffffffffffffffffffffffffffffffffff16815260200160608152602001606081526020016000600581111561118e5761118d611566565b5b81525090565b6000604051905090565b600080fd5b600080fd5b6000819050919050565b6111bb816111a8565b81146111c657600080fd5b50565b6000813590506111d8816111b2565b92915050565b600080600080608085870312156111f8576111f761119e565b5b6000611206878288016111c9565b9450506020611217878288016111c9565b9350506040611228878288016111c9565b9250506060611239878288016111c9565b91505092959194509250565b61124e816111a8565b82525050565b60006020820190506112696000830184611245565b92915050565b600080fd5b600080fd5b6000601f19601f8301169050919050565b7f4e487b7100000000000000000000000000000000000000000000000000000000600052604160045260246000fd5b6112c282611279565b810181811067ffffffffffffffff821117156112e1576112e061128a565b5b80604052505050565b60006112f4611194565b905061130082826112b9565b919050565b600067ffffffffffffffff8211156113205761131f61128a565b5b61132982611279565b9050602081019050919050565b82818337600083830152505050565b600061135861135384611305565b6112ea565b90508281526020810184848401111561137457611373611274565b5b61137f848285611336565b509392505050565b600082601f83011261139c5761139b61126f565b5b81356113ac848260208601611345565b91505092915050565b600080604083850312156113cc576113cb61119e565b5b60006113da858286016111c9565b925050602083013567ffffffffffffffff8111156113fb576113fa6111a3565b5b61140785828601611387565b9150509250929050565b600073ffffffffffffffffffffffffffffffffffffffff82169050919050565b600061143c82611411565b9050919050565b61144c81611431565b811461145757600080fd5b50565b60008135905061146981611443565b92915050565b6000602082840312156114855761148461119e565b5b60006114938482850161145a565b91505092915050565b6000602082840312156114b2576114b161119e565b5b60006114c0848285016111c9565b91505092915050565b6114d2816111a8565b82525050565b6114e181611431565b82525050565b600081519050919050565b600082825260208201905092915050565b60005b83811015611521578082015181840152602081019050611506565b60008484015250505050565b6000611538826114e7565b61154281856114f2565b9350611552818560208601611503565b61155b81611279565b840191505092915050565b7f4e487b7100000000000000000000000000000000000000000000000000000000600052602160045260246000fd5b600681106115a6576115a5611566565b5b50565b60008190506115b782611595565b919050565b60006115c7826115a9565b9050919050565b6115d7816115bc565b82525050565b6000610180830160008301516115f660008601826114c9565b50602083015161160960208601826114c9565b50604083015161161c60408601826114c9565b50606083015161162f60608601826114c9565b50608083015161164260808601826114d8565b5060a083015161165560a08601826114c9565b5060c083015161166860c08601826114c9565b5060e083015161167b60e08601826114c9565b506101008301516116906101008601826114d8565b506101208301518482036101208601526116aa828261152d565b9150506101408301518482036101408601526116c6828261152d565b9150506101608301516116dd6101608601826115ce565b508091505092915050565b6000602082019050818103600083015261170281846115dd565b905092915050565b600080604083850312156117215761172061119e565b5b600061172f858286016111c9565b92505060206117408582860161145a565b9150509250929050565b6000819050919050565b600061176f61176a61176584611411565b61174a565b611411565b9050919050565b600061178182611754565b9050919050565b600061179382611776565b9050919050565b6117a381611788565b82525050565b60006020820190506117be600083018461179a565b92915050565b600081519050919050565b600082825260208201905092915050565b6000819050602082019050919050565b60006101808301600083015161180960008601826114c9565b50602083015161181c60208601826114c9565b50604083015161182f60408601826114c9565b50606083015161184260608601826114c9565b50608083015161185560808601826114d8565b5060a083015161186860a08601826114c9565b5060c083015161187b60c08601826114c9565b5060e083015161188e60e08601826114c9565b506101008301516118a36101008601826114d8565b506101208301518482036101208601526118bd828261152d565b9150506101408301518482036101408601526118d9828261152d565b9150506101608301516118f06101608601826115ce565b508091505092915050565b600061190783836117f0565b905092915050565b6000602082019050919050565b6000611927826117c4565b61193181856117cf565b935083602082028501611943856117e0565b8060005b8581101561197f578484038952815161196085826118fb565b945061196b8361190f565b925060208a01995050600181019050611947565b50829750879550505050505092915050565b600060208201905081810360008301526119ab818461191c565b905092915050565b6119bc81611431565b82525050565b60006020820190506119d760008301846119b3565b92915050565b600060a0820190506119f26000830188611245565b6119ff6020830187611245565b611a0c6040830186611245565b611a1960608301856119b3565b611a266080830184611245565b9695505050505050565b600081519050611a3f816111b2565b92915050565b600060208284031215611a5b57611a5a61119e565b5b6000611a6984828501611a30565b91505092915050565b600082825260208201905092915050565b7f4f6e6c792074686520726576656e7565206465706172746d656e7420656d706c60008201527f6f7965652063616e2063616c6c20746869732066756e6374696f6e2e00000000602082015250565b6000611adf603c83611a72565b9150611aea82611a83565b604082019050919050565b60006020820190508181036000830152611b0e81611ad2565b9050919050565b6000611b20826114e7565b611b2a8185611a72565b9350611b3a818560208601611503565b611b4381611279565b840191505092915050565b6000606082019050611b636000830186611245565b611b7060208301856119b3565b8181036040830152611b828184611b15565b9050949350505050565b7f416c6c6f776564204f6e6c79204f6e636520746f2063616c6c00000000000000600082015250565b6000611bc2601983611a72565b9150611bcd82611b8c565b602082019050919050565b60006020820190508181036000830152611bf181611bb5565b9050919050565b600080fd5b600080fd5b600081519050611c1181611443565b92915050565b6000611c2a611c2584611305565b6112ea565b905082815260208101848484011115611c4657611c45611274565b5b611c51848285611503565b509392505050565b600082601f830112611c6e57611c6d61126f565b5b8151611c7e848260208601611c17565b91505092915050565b60068110611c9457600080fd5b50565b600081519050611ca681611c87565b92915050565b60006101808284031215611cc357611cc2611bf8565b5b611cce6101806112ea565b90506000611cde84828501611a30565b6000830152506020611cf284828501611a30565b6020830152506040611d0684828501611a30565b6040830152506060611d1a84828501611a30565b6060830152506080611d2e84828501611c02565b60808301525060a0611d4284828501611a30565b60a08301525060c0611d5684828501611a30565b60c08301525060e0611d6a84828501611a30565b60e083015250610100611d7f84828501611c02565b6101008301525061012082015167ffffffffffffffff811115611da557611da4611bfd565b5b611db184828501611c59565b6101208301525061014082015167ffffffffffffffff811115611dd757611dd6611bfd565b5b611de384828501611c59565b61014083015250610160611df984828501611c97565b6101608301525092915050565b600060208284031215611e1c57611e1b61119e565b5b600082015167ffffffffffffffff811115611e3a57611e396111a3565b5b611e4684828501611cac565b91505092915050565b7f4f6e6c79205472616e736665724f664f776e65725368697020436f6e7472616360008201527f7420416c6c6f7765640000000000000000000000000000000000000000000000602082015250565b6000611eab602983611a72565b9150611eb682611e4f565b604082019050919050565b60006020820190508181036000830152611eda81611e9e565b9050919050565b7f4e487b7100000000000000000000000000000000000000000000000000000000600052603260045260246000fd5b7f4e487b7100000000000000000000000000000000000000000000000000000000600052601160045260246000fd5b6000611f4a826111a8565b9150611f55836111a8565b9250828203905081811115611f6d57611f6c611f10565b5b92915050565b7f4e487b7100000000000000000000000000000000000000000000000000000000600052603160045260246000fd5b6000611fad826111a8565b91507fffffffffffffffffffffffffffffffffffffffffffffffffffffffffffffffff8203611fdf57611fde611f10565b5b600182019050919050565b6000604082019050611fff6000830185611245565b61200c60208301846119b3565b9392505050565b7f43616c6c6572206973206e6f7420746865206f776e6572000000000000000000600082015250565b6000612049601783611a72565b915061205482612013565b602082019050919050565b600060208201905081810360008301526120788161203c565b905091905056fea26469706673582212200c86f7f542b36e9df02f4184a2a575a7d03897174537aa79ee7a1afe351e979f64736f6c63430008120033608060405234801561001057600080fd5b50611fb6806100206000396000f3fe608060405234801561001057600080fd5b506004361061009e5760003560e01c806397f15c021161006657806397f15c02146101435780639bcff9ba1461015f578063e261f1e51461017b578063f4eff9da146101b6578063fbb62fe7146101d25761009e565b806302402589146100a357806313fe24f7146100d35780637192711f146100ef57806377d90c661461010b5780637b5484a814610127575b600080fd5b6100bd60048036038101906100b8919061134d565b610202565b6040516100ca91906113d7565b60405180910390f35b6100ed60048036038101906100e8919061155d565b610428565b005b61010960048036038101906101049190611674565b61061f565b005b610125600480360381019061012091906116b4565b61070d565b005b610141600480360381019061013c9190611674565b610837565b005b61015d600480360381019061015891906116e1565b610974565b005b61017960048036038101906101749190611674565b610a86565b005b610195600480360381019061019091906116b4565b610bc3565b6040516101ad9c9b9a99989796959493929190611855565b60405180910390f35b6101d060048036038101906101cb9190611674565b610d80565b005b6101ec60048036038101906101e791906116b4565b610e6e565b6040516101f99190611a9f565b60405180910390f35b60006001600081548092919061021790611af0565b919050555060405180610180016040528060015481526020018781526020018681526020018581526020018473ffffffffffffffffffffffffffffffffffffffff16815260200183815260200160008152602001428152602001600073ffffffffffffffffffffffffffffffffffffffff168152602001604051806020016040528060008152508152602001604051806020016040528060008152508152602001600060058111156102cc576102cb6117de565b5b81525060008060015481526020019081526020016000206000820151816000015560208201518160010155604082015181600201556060820151816003015560808201518160040160006101000a81548173ffffffffffffffffffffffffffffffffffffffff021916908373ffffffffffffffffffffffffffffffffffffffff16021790555060a0820151816005015560c0820151816006015560e082015181600701556101008201518160080160006101000a81548173ffffffffffffffffffffffffffffffffffffffff021916908373ffffffffffffffffffffffffffffffffffffffff1602179055506101208201518160090190816103ce9190611d44565b5061014082015181600a0190816103e59190611d44565b5061016082015181600b0160006101000a81548160ff02191690836005811115610412576104116117de565b5b0217905550905050600154905095945050505050565b60008060008c81526020019081526020016000206000015403610480576040517f08c379a000000000000000000000000000000000000000000000000000000000815260040161047790611e62565b60405180910390fd5b886000808c815260200190815260200160002060010181905550876000808c815260200190815260200160002060020181905550866000808c815260200190815260200160002060030181905550856000808c815260200190815260200160002060040160006101000a81548173ffffffffffffffffffffffffffffffffffffffff021916908373ffffffffffffffffffffffffffffffffffffffff160217905550846000808c815260200190815260200160002060050181905550836000808c815260200190815260200160002060080160006101000a81548173ffffffffffffffffffffffffffffffffffffffff021916908373ffffffffffffffffffffffffffffffffffffffff160217905550826000808c815260200190815260200160002060090190816105b29190611d44565b50816000808c8152602001908152602001600020600a0190816105d59190611d44565b50806000808c8152602001908152602001600020600b0160006101000a81548160ff0219169083600581111561060e5761060d6117de565b5b021790555050505050505050505050565b60008060008481526020019081526020016000206000015403610677576040517f08c379a000000000000000000000000000000000000000000000000000000000815260040161066e90611e62565b60405180910390fd5b8060008084815260200190815260200160002060040160006101000a81548173ffffffffffffffffffffffffffffffffffffffff021916908373ffffffffffffffffffffffffffffffffffffffff1602179055506005600080848152602001908152602001600020600b0160006101000a81548160ff02191690836005811115610704576107036117de565b5b02179055505050565b60008060008381526020019081526020016000206000015403610765576040517f08c379a000000000000000000000000000000000000000000000000000000000815260040161075c90611e62565b60405180910390fd5b6000808281526020019081526020016000206000808201600090556001820160009055600282016000905560038201600090556004820160006101000a81549073ffffffffffffffffffffffffffffffffffffffff02191690556005820160009055600682016000905560078201600090556008820160006101000a81549073ffffffffffffffffffffffffffffffffffffffff021916905560098201600061080e91906111a9565b600a8201600061081e91906111a9565b600b820160006101000a81549060ff0219169055505050565b6000806000848152602001908152602001600020600001540361088f576040517f08c379a000000000000000000000000000000000000000000000000000000000815260040161088690611e62565b60405180910390fd5b8073ffffffffffffffffffffffffffffffffffffffff1660008084815260200190815260200160002060040160009054906101000a900473ffffffffffffffffffffffffffffffffffffffff1673ffffffffffffffffffffffffffffffffffffffff1614610932576040517f08c379a000000000000000000000000000000000000000000000000000000000815260040161092990611ece565b60405180910390fd5b6002600080848152602001908152602001600020600b0160006101000a81548160ff0219169083600581111561096b5761096a6117de565b5b02179055505050565b600080600085815260200190815260200160002060000154036109cc576040517f08c379a00000000000000000000000000000000000000000000000000000000081526004016109c390611e62565b60405180910390fd5b8160008085815260200190815260200160002060080160006101000a81548173ffffffffffffffffffffffffffffffffffffffff021916908373ffffffffffffffffffffffffffffffffffffffff1602179055506003600080858152602001908152602001600020600b0160006101000a81548160ff02191690836005811115610a5957610a586117de565b5b021790555080600080858152602001908152602001600020600a019081610a809190611d44565b50505050565b60008060008481526020019081526020016000206000015403610ade576040517f08c379a0000000000000000000000000000000000000000000000000000000008152600401610ad590611e62565b60405180910390fd5b8073ffffffffffffffffffffffffffffffffffffffff1660008084815260200190815260200160002060040160009054906101000a900473ffffffffffffffffffffffffffffffffffffffff1673ffffffffffffffffffffffffffffffffffffffff1614610b81576040517f08c379a0000000000000000000000000000000000000000000000000000000008152600401610b7890611f60565b60405180910390fd5b6004600080848152602001908152602001600020600b0160006101000a81548160ff02191690836005811115610bba57610bb96117de565b5b02179055505050565b60006020528060005260406000206000915090508060000154908060010154908060020154908060030154908060040160009054906101000a900473ffffffffffffffffffffffffffffffffffffffff16908060050154908060060154908060070154908060080160009054906101000a900473ffffffffffffffffffffffffffffffffffffffff1690806009018054610c5c90611b67565b80601f0160208091040260200160405190810160405280929190818152602001828054610c8890611b67565b8015610cd55780601f10610caa57610100808354040283529160200191610cd5565b820191906000526020600020905b815481529060010190602001808311610cb857829003601f168201915b50505050509080600a018054610cea90611b67565b80601f0160208091040260200160405190810160405280929190818152602001828054610d1690611b67565b8015610d635780601f10610d3857610100808354040283529160200191610d63565b820191906000526020600020905b815481529060010190602001808311610d4657829003601f168201915b50505050509080600b0160009054906101000a900460ff1690508c565b60008060008481526020019081526020016000206000015403610dd8576040517f08c379a0000000000000000000000000000000000000000000000000000000008152600401610dcf90611e62565b60405180910390fd5b8060008084815260200190815260200160002060080160006101000a81548173ffffffffffffffffffffffffffffffffffffffff021916908373ffffffffffffffffffffffffffffffffffffffff1602179055506002600080848152602001908152602001600020600b0160006101000a81548160ff02191690836005811115610e6557610e646117de565b5b02179055505050565b610e766111e9565b60008060008481526020019081526020016000206000015403610ece576040517f08c379a0000000000000000000000000000000000000000000000000000000008152600401610ec590611e62565b60405180910390fd5b60405180610180016040528083815260200160008085815260200190815260200160002060010154815260200160008085815260200190815260200160002060020154815260200160008085815260200190815260200160002060030154815260200160008085815260200190815260200160002060040160009054906101000a900473ffffffffffffffffffffffffffffffffffffffff1673ffffffffffffffffffffffffffffffffffffffff16815260200160008085815260200190815260200160002060050154815260200160008085815260200190815260200160002060060154815260200160008085815260200190815260200160002060070154815260200160008085815260200190815260200160002060080160009054906101000a900473ffffffffffffffffffffffffffffffffffffffff1673ffffffffffffffffffffffffffffffffffffffff168152602001600080858152602001908152602001600020600901805461104490611b67565b80601f016020809104026020016040519081016040528092919081815260200182805461107090611b67565b80156110bd5780601f10611092576101008083540402835291602001916110bd565b820191906000526020600020905b8154815290600101906020018083116110a057829003601f168201915b50505050508152602001600080858152602001908152602001600020600a0180546110e790611b67565b80601f016020809104026020016040519081016040528092919081815260200182805461111390611b67565b80156111605780601f1061113557610100808354040283529160200191611160565b820191906000526020600020905b81548152906001019060200180831161114357829003601f168201915b50505050508152602001600080858152602001908152602001600020600b0160009054906101000a900460ff16600581111561119f5761119e6117de565b5b8152509050919050565b5080546111b590611b67565b6000825580601f106111c757506111e6565b601f0160209004906000526020600020908101906111e59190611288565b5b50565b60405180610180016040528060008152602001600081526020016000815260200160008152602001600073ffffffffffffffffffffffffffffffffffffffff168152602001600081526020016000815260200160008152602001600073ffffffffffffffffffffffffffffffffffffffff168152602001606081526020016060815260200160006005811115611282576112816117de565b5b81525090565b5b808211156112a1576000816000905550600101611289565b5090565b6000604051905090565b600080fd5b600080fd5b6000819050919050565b6112cc816112b9565b81146112d757600080fd5b50565b6000813590506112e9816112c3565b92915050565b600073ffffffffffffffffffffffffffffffffffffffff82169050919050565b600061131a826112ef565b9050919050565b61132a8161130f565b811461133557600080fd5b50565b60008135905061134781611321565b92915050565b600080600080600060a08688031215611369576113686112af565b5b6000611377888289016112da565b9550506020611388888289016112da565b9450506040611399888289016112da565b93505060606113aa88828901611338565b92505060806113bb888289016112da565b9150509295509295909350565b6113d1816112b9565b82525050565b60006020820190506113ec60008301846113c8565b92915050565b600080fd5b600080fd5b6000601f19601f8301169050919050565b7f4e487b7100000000000000000000000000000000000000000000000000000000600052604160045260246000fd5b611445826113fc565b810181811067ffffffffffffffff821117156114645761146361140d565b5b80604052505050565b60006114776112a5565b9050611483828261143c565b919050565b600067ffffffffffffffff8211156114a3576114a261140d565b5b6114ac826113fc565b9050602081019050919050565b82818337600083830152505050565b60006114db6114d684611488565b61146d565b9050828152602081018484840111156114f7576114f66113f7565b5b6115028482856114b9565b509392505050565b600082601f83011261151f5761151e6113f2565b5b813561152f8482602086016114c8565b91505092915050565b6006811061154557600080fd5b50565b60008135905061155781611538565b92915050565b6000806000806000806000806000806101408b8d031215611581576115806112af565b5b600061158f8d828e016112da565b9a505060206115a08d828e016112da565b99505060406115b18d828e016112da565b98505060606115c28d828e016112da565b97505060806115d38d828e01611338565b96505060a06115e48d828e016112da565b95505060c06115f58d828e01611338565b94505060e08b013567ffffffffffffffff811115611616576116156112b4565b5b6116228d828e0161150a565b9350506101008b013567ffffffffffffffff811115611644576116436112b4565b5b6116508d828e0161150a565b9250506101206116628d828e01611548565b9150509295989b9194979a5092959850565b6000806040838503121561168b5761168a6112af565b5b6000611699858286016112da565b92505060206116aa85828601611338565b9150509250929050565b6000602082840312156116ca576116c96112af565b5b60006116d8848285016112da565b91505092915050565b6000806000606084860312156116fa576116f96112af565b5b6000611708868287016112da565b935050602061171986828701611338565b925050604084013567ffffffffffffffff81111561173a576117396112b4565b5b6117468682870161150a565b9150509250925092565b6117598161130f565b82525050565b600081519050919050565b600082825260208201905092915050565b60005b8381101561179957808201518184015260208101905061177e565b60008484015250505050565b60006117b08261175f565b6117ba818561176a565b93506117ca81856020860161177b565b6117d3816113fc565b840191505092915050565b7f4e487b7100000000000000000000000000000000000000000000000000000000600052602160045260246000fd5b6006811061181e5761181d6117de565b5b50565b600081905061182f8261180d565b919050565b600061183f82611821565b9050919050565b61184f81611834565b82525050565b60006101808201905061186b600083018f6113c8565b611878602083018e6113c8565b611885604083018d6113c8565b611892606083018c6113c8565b61189f608083018b611750565b6118ac60a083018a6113c8565b6118b960c08301896113c8565b6118c660e08301886113c8565b6118d4610100830187611750565b8181036101208301526118e781866117a5565b90508181036101408301526118fc81856117a5565b905061190c610160830184611846565b9d9c50505050505050505050505050565b611926816112b9565b82525050565b6119358161130f565b82525050565b600082825260208201905092915050565b60006119578261175f565b611961818561193b565b935061197181856020860161177b565b61197a816113fc565b840191505092915050565b61198e81611834565b82525050565b6000610180830160008301516119ad600086018261191d565b5060208301516119c0602086018261191d565b5060408301516119d3604086018261191d565b5060608301516119e6606086018261191d565b5060808301516119f9608086018261192c565b5060a0830151611a0c60a086018261191d565b5060c0830151611a1f60c086018261191d565b5060e0830151611a3260e086018261191d565b50610100830151611a4761010086018261192c565b50610120830151848203610120860152611a61828261194c565b915050610140830151848203610140860152611a7d828261194c565b915050610160830151611a94610160860182611985565b508091505092915050565b60006020820190508181036000830152611ab98184611994565b905092915050565b7f4e487b7100000000000000000000000000000000000000000000000000000000600052601160045260246000fd5b6000611afb826112b9565b91507fffffffffffffffffffffffffffffffffffffffffffffffffffffffffffffffff8203611b2d57611b2c611ac1565b5b600182019050919050565b7f4e487b7100000000000000000000000000000000000000000000000000000000600052602260045260246000fd5b60006002820490506001821680611b7f57607f821691505b602082108103611b9257611b91611b38565b5b50919050565b60008190508160005260206000209050919050565b60006020601f8301049050919050565b600082821b905092915050565b600060088302611bfa7fffffffffffffffffffffffffffffffffffffffffffffffffffffffffffffffff82611bbd565b611c048683611bbd565b95508019841693508086168417925050509392505050565b6000819050919050565b6000611c41611c3c611c37846112b9565b611c1c565b6112b9565b9050919050565b6000819050919050565b611c5b83611c26565b611c6f611c6782611c48565b848454611bca565b825550505050565b600090565b611c84611c77565b611c8f818484611c52565b505050565b5b81811015611cb357611ca8600082611c7c565b600181019050611c95565b5050565b601f821115611cf857611cc981611b98565b611cd284611bad565b81016020851015611ce1578190505b611cf5611ced85611bad565b830182611c94565b50505b505050565b600082821c905092915050565b6000611d1b60001984600802611cfd565b1980831691505092915050565b6000611d348383611d0a565b9150826002028217905092915050565b611d4d8261175f565b67ffffffffffffffff811115611d6657611d6561140d565b5b611d708254611b67565b611d7b828285611cb7565b600060209050601f831160018114611dae5760008415611d9c578287015190505b611da68582611d28565b865550611e0e565b601f198416611dbc86611b98565b60005b82811015611de457848901518255600182019150602085019450602081019050611dbf565b86831015611e015784890151611dfd601f891682611d0a565b8355505b6001600288020188555050505b505050505050565b7f4c616e6420646f6573206e6f7420657869737400000000000000000000000000600082015250565b6000611e4c60138361176a565b9150611e5782611e16565b602082019050919050565b60006020820190508181036000830152611e7b81611e3f565b9050919050565b7f6f6e6c79206f776e65722068697320616c6c6f77656400000000000000000000600082015250565b6000611eb860168361176a565b9150611ec382611e82565b602082019050919050565b60006020820190508181036000830152611ee781611eab565b9050919050565b7f6f6e6c79206f776e65722063616e206d616b6520617661696c61626c6520746f60008201527f2073656c6c000000000000000000000000000000000000000000000000000000602082015250565b6000611f4a60258361176a565b9150611f5582611eee565b604082019050919050565b60006020820190508181036000830152611f7981611f3d565b905091905056fea26469706673582212207ddaec60f19884756b4d34c9738c66988accc10b870c12712b6032fc525d1fac64736f6c63430008120033",
  "immutableReferences": {},
  "source": "// SPDX-License-Identifier: MIT\r\npragma solidity >=0.4.22 <0.9.0;\r\n\r\n\r\nimport \"./Properties.sol\";\r\n\r\ncontract LandRegistry{\r\n\r\n    address private contractOwner;\r\n    address private transferOwnershipContractAddress;\r\n    bool private transferOwnershipContractAddressUpdated = false;\r\n\r\n    Property public propertiesContract;\r\n    \r\n    \r\n    constructor(){\r\n        contractOwner = msg.sender;\r\n        transferOwnershipContractAddress = address(0);\r\n        transferOwnershipContractAddressUpdated = false;\r\n        propertiesContract = new Property();\r\n    }\r\n\r\n    // modifiers \r\n\r\n    modifier onlyOwner() {\r\n        require(msg.sender == contractOwner, \"Caller is not the owner\");\r\n        _;\r\n    }\r\n\r\n\r\n    modifier onlyRevenueDeptEmployee(uint256 revenueDeptId) {\r\n        require(msg.sender == revenueDeptIdToEmployee[revenueDeptId], \"Only the revenue department employee can call this function.\");\r\n        _;\r\n    }\r\n\r\n    // events\r\n    event LandAdded(address indexed owner,uint256 indexed propertyId);\r\n\r\n\r\n\r\n    // mapping owner and thier properties\r\n    mapping(address => uint256[]) private propertiesOfOwner;\r\n\r\n    // mapping revenue Department and properties under control of them \r\n    // for verification procedures\r\n    mapping(uint256 => uint256[]) private propertiesControlledByRevenueDept;\r\n\r\n\r\n    \r\n    // mapping of revenue department id to employee address\r\n    mapping (uint256 => address) public revenueDeptIdToEmployee;\r\n\r\n\r\n    function setTransferOwnershipContractAddress(\r\n        address contractAddress\r\n        ) public {\r\n            \r\n            // This function can be called only once \r\n            require(transferOwnershipContractAddressUpdated==false,\"Allowed Only Once to call\");\r\n            \r\n            // setting contract address\r\n            transferOwnershipContractAddress = contractAddress;\r\n\r\n            // Make transferOwnership contrat updated as True \r\n            // So,that no body calls it again\r\n            transferOwnershipContractAddressUpdated = true;\r\n    }\r\n\r\n\r\n\r\n\r\n    // add Land and maps to owner\r\n    function addLand(\r\n        uint256 _locationId,\r\n        uint256 _revenueDepartmentId,\r\n        uint256 _surveyNumber,\r\n        uint256 _area\r\n        ) public returns (uint256) {\r\n        \r\n        // check already land present or not \r\n        // with revernue dept id, location id, survey number\r\n\r\n        address _owner = msg.sender;\r\n        uint256 propertyId = propertiesContract.addLand(\r\n                                                        _locationId,\r\n                                                        _revenueDepartmentId,\r\n                                                        _surveyNumber,\r\n                                                        _owner,\r\n                                                        _area\r\n                                                    );\r\n\r\n\r\n        // adding property id to owner list\r\n        propertiesOfOwner[_owner].push(propertyId);\r\n\r\n        // adding property id to revenue department\r\n        propertiesControlledByRevenueDept[_revenueDepartmentId].push(propertyId);\r\n\r\n\r\n        emit LandAdded(_owner,propertyId);\r\n        \r\n        return propertyId;\r\n    }\r\n\r\n\r\n    function getPropertyDetails(\r\n        uint256 _propertyId\r\n        ) public view returns (Property.Land memory){\r\n\r\n        return propertiesContract.getLandDetailsAsStruct(_propertyId);\r\n    }\r\n\r\n\r\n\r\n    // returns the property details of a owner\r\n    function getPropertiesOfOwner(\r\n        address _owner\r\n        ) public view returns (\r\n        Property.Land[] memory\r\n        ) {\r\n            uint256[] memory propertyIds = propertiesOfOwner[_owner];\r\n            Property.Land[] memory properties = new Property.Land[](propertyIds.length);\r\n            \r\n            for (uint256 i = 0; i < propertyIds.length; i++) {\r\n            //   properties[i] = propertiesContract.lands(propertyIds[i]);\r\n                properties[i] = propertiesContract.getLandDetailsAsStruct(propertyIds[i]);\r\n            }\r\n               \r\n                \r\n            return properties;\r\n    }\r\n\r\n\r\n    \r\n    // return the property details based on revenue Dept\r\n    function getPropertiesByRevenueDeptId(\r\n        uint256 _revenueDeptId\r\n        ) public view returns (\r\n        Property.Land[] memory\r\n        ) {\r\n            uint256[] memory propertyIds = propertiesControlledByRevenueDept[_revenueDeptId];\r\n            \r\n            Property.Land[] memory properties = new Property.Land[](propertyIds.length);\r\n            \r\n            for (uint256 i = 0; i < propertyIds.length; i++) {\r\n            //   properties[i] = propertiesContract.lands(propertyIds[i]);\r\n                properties[i] = propertiesContract.getLandDetailsAsStruct(propertyIds[i]);\r\n            }\r\n               \r\n                \r\n            return properties;\r\n    }\r\n            \r\n\r\n    // map to revenue department id to employee address\r\n    function mapRevenueDeptIdToEmployee(\r\n        uint256 revenueDeptId, \r\n        address employeeAddress\r\n        ) public onlyOwner {\r\n        \r\n        revenueDeptIdToEmployee[revenueDeptId] = employeeAddress;\r\n    }\r\n\r\n\r\n    function getRevenueDeptId(uint256 propertyId) private view returns (uint256) {\r\n        return propertiesContract.getLandDetailsAsStruct(propertyId).revenueDepartmentId;\r\n    }\r\n\r\n    function verifyProperty(\r\n        uint256 _propertyId\r\n        ) public onlyRevenueDeptEmployee(getRevenueDeptId(_propertyId)) {\r\n        \r\n        propertiesContract.changeStateToVerifed(_propertyId, msg.sender);\r\n\r\n    }\r\n\r\n    function rejectProperty(\r\n        uint256 _propertyId,\r\n        string memory _reason\r\n        ) public onlyRevenueDeptEmployee(getRevenueDeptId(_propertyId)) {\r\n        \r\n            propertiesContract.changeStateToRejected(_propertyId, msg.sender,_reason);\r\n\r\n    }\r\n\r\n\r\n\r\n\r\n    function transferOwnership(uint256 _propertyId, address newOwner) public {\r\n        \r\n        require(msg.sender==transferOwnershipContractAddress,\"Only TransferOfOwnerShip Contract Allowed\");\r\n        \r\n        // Remove property from old owner's list\r\n        address oldOwner  = propertiesContract.getLandDetailsAsStruct(_propertyId).owner;\r\n\r\n        uint256[] storage propertiesOfOldOwner = propertiesOfOwner[oldOwner];\r\n        for (uint i = 0; i < propertiesOfOldOwner.length; i++) {\r\n            if (propertiesOfOldOwner[i] == _propertyId) {\r\n                propertiesOfOldOwner[i] = propertiesOfOldOwner[propertiesOfOldOwner.length - 1];\r\n                propertiesOfOldOwner.pop();\r\n                break;\r\n            }\r\n        }\r\n\r\n        // Add Property to new owner's list\r\n        propertiesOfOwner[newOwner].push(_propertyId);\r\n\r\n        propertiesContract.updateOwner(_propertyId, newOwner);\r\n\r\n        \r\n\r\n    }\r\n\r\n    function getPropertiesContract() public view returns (address){\r\n        return address(propertiesContract);\r\n    }\r\n   \r\n}\r\n\r\n",
  "sourcePath": "E:\\Major_Project\\Code\\Smart_contracts\\contracts\\LandRegistry.sol",
  "compiler": {
    "name": "solc",
    "version": "0.8.18+commit.87f61d96.Emscripten.clang"
  },
  "schemaVersion": "3.4.12",
  "updatedAt": "2023-04-16T18:12:44.338Z",
  "networkType": "ethereum",
  "devdoc": {
    "kind": "dev",
    "methods": {},
    "version": 1
  },
  "userdoc": {
    "kind": "user",
    "methods": {},
    "version": 1
  }
}