{
  "contractName": "Property",
  "abi": [
    {
      "inputs": [
        {
          "internalType": "uint256",
          "name": "",
          "type": "uint256"
        }
      ],
      "name": "lands",
      "outputs": [
        {
          "internalType": "uint256",
          "name": "propertyId",
          "type": "uint256"
        },
        {
          "internalType": "uint256",
          "name": "locationId",
          "type": "uint256"
        },
        {
          "internalType": "uint256",
          "name": "revenueDepartmentId",
          "type": "uint256"
        },
        {
          "internalType": "uint256",
          "name": "surveyNumber",
          "type": "uint256"
        },
        {
          "internalType": "address",
          "name": "owner",
          "type": "address"
        },
        {
          "internalType": "uint256",
          "name": "area",
          "type": "uint256"
        },
        {
          "internalType": "uint256",
          "name": "price",
          "type": "uint256"
        },
        {
          "internalType": "uint256",
          "name": "registeredTime",
          "type": "uint256"
        },
        {
          "internalType": "address",
          "name": "employeeId",
          "type": "address"
        },
        {
          "internalType": "string",
          "name": "scheduledDate",
          "type": "string"
        },
        {
          "internalType": "string",
          "name": "rejectedReason",
          "type": "string"
        },
        {
          "internalType": "enum Property.StateOfProperty",
          "name": "state",
          "type": "uint8"
        }
      ],
      "stateMutability": "view",
      "type": "function"
    },
    {
      "inputs": [
        {
          "internalType": "uint256",
          "name": "_locationId",
          "type": "uint256"
        },
        {
          "internalType": "uint256",
          "name": "_revenueDepartmentId",
          "type": "uint256"
        },
        {
          "internalType": "uint256",
          "name": "_surveyNumber",
          "type": "uint256"
        },
        {
          "internalType": "address",
          "name": "_owner",
          "type": "address"
        },
        {
          "internalType": "uint256",
          "name": "_area",
          "type": "uint256"
        }
      ],
      "name": "addLand",
      "outputs": [
        {
          "internalType": "uint256",
          "name": "",
          "type": "uint256"
        }
      ],
      "stateMutability": "nonpayable",
      "type": "function"
    },
    {
      "inputs": [
        {
          "internalType": "uint256",
          "name": "_propertyId",
          "type": "uint256"
        }
      ],
      "name": "getLandDetailsAsStruct",
      "outputs": [
        {
          "components": [
            {
              "internalType": "uint256",
              "name": "propertyId",
              "type": "uint256"
            },
            {
              "internalType": "uint256",
              "name": "locationId",
              "type": "uint256"
            },
            {
              "internalType": "uint256",
              "name": "revenueDepartmentId",
              "type": "uint256"
            },
            {
              "internalType": "uint256",
              "name": "surveyNumber",
              "type": "uint256"
            },
            {
              "internalType": "address",
              "name": "owner",
              "type": "address"
            },
            {
              "internalType": "uint256",
              "name": "area",
              "type": "uint256"
            },
            {
              "internalType": "uint256",
              "name": "price",
              "type": "uint256"
            },
            {
              "internalType": "uint256",
              "name": "registeredTime",
              "type": "uint256"
            },
            {
              "internalType": "address",
              "name": "employeeId",
              "type": "address"
            },
            {
              "internalType": "string",
              "name": "scheduledDate",
              "type": "string"
            },
            {
              "internalType": "string",
              "name": "rejectedReason",
              "type": "string"
            },
            {
              "internalType": "enum Property.StateOfProperty",
              "name": "state",
              "type": "uint8"
            }
          ],
          "internalType": "struct Property.Land",
          "name": "",
          "type": "tuple"
        }
      ],
      "stateMutability": "view",
      "type": "function"
    },
    {
      "inputs": [
        {
          "internalType": "uint256",
          "name": "_propertyId",
          "type": "uint256"
        }
      ],
      "name": "removeLand",
      "outputs": [],
      "stateMutability": "nonpayable",
      "type": "function"
    },
    {
      "inputs": [
        {
          "internalType": "uint256",
          "name": "_propertyId",
          "type": "uint256"
        },
        {
          "internalType": "uint256",
          "name": "_locationId",
          "type": "uint256"
        },
        {
          "internalType": "uint256",
          "name": "_revenueDepartmentId",
          "type": "uint256"
        },
        {
          "internalType": "uint256",
          "name": "_surveyNumber",
          "type": "uint256"
        },
        {
          "internalType": "address",
          "name": "_owner",
          "type": "address"
        },
        {
          "internalType": "uint256",
          "name": "_area",
          "type": "uint256"
        },
        {
          "internalType": "address",
          "name": "_employeeId",
          "type": "address"
        },
        {
          "internalType": "string",
          "name": "_scheduledDate",
          "type": "string"
        },
        {
          "internalType": "string",
          "name": "_rejectedReason",
          "type": "string"
        },
        {
          "internalType": "enum Property.StateOfProperty",
          "name": "_state",
          "type": "uint8"
        }
      ],
      "name": "updateLand",
      "outputs": [],
      "stateMutability": "nonpayable",
      "type": "function"
    },
    {
      "inputs": [
        {
          "internalType": "uint256",
          "name": "_propertyId",
          "type": "uint256"
        },
        {
          "internalType": "address",
          "name": "_employeeId",
          "type": "address"
        }
      ],
      "name": "changeStateToVerifed",
      "outputs": [],
      "stateMutability": "nonpayable",
      "type": "function"
    },
    {
      "inputs": [
        {
          "internalType": "uint256",
          "name": "_propertyId",
          "type": "uint256"
        },
        {
          "internalType": "address",
          "name": "_employeeId",
          "type": "address"
        },
        {
          "internalType": "string",
          "name": "_reason",
          "type": "string"
        }
      ],
      "name": "changeStateToRejected",
      "outputs": [],
      "stateMutability": "nonpayable",
      "type": "function"
    },
    {
      "inputs": [
        {
          "internalType": "uint256",
          "name": "_propertyId",
          "type": "uint256"
        },
        {
          "internalType": "address",
          "name": "_owner",
          "type": "address"
        }
      ],
      "name": "changeStateToOnSale",
      "outputs": [],
      "stateMutability": "nonpayable",
      "type": "function"
    },
    {
      "inputs": [
        {
          "internalType": "uint256",
          "name": "_propertyId",
          "type": "uint256"
        },
        {
          "internalType": "address",
          "name": "_owner",
          "type": "address"
        }
      ],
      "name": "changeStateBackToVerificed",
      "outputs": [],
      "stateMutability": "nonpayable",
      "type": "function"
    },
    {
      "inputs": [
        {
          "internalType": "uint256",
          "name": "_propertyId",
          "type": "uint256"
        },
        {
          "internalType": "address",
          "name": "newOwner",
          "type": "address"
        }
      ],
      "name": "updateOwner",
      "outputs": [],
      "stateMutability": "nonpayable",
      "type": "function"
    }
  ],
  "bytecode": "0x608060405234801561001057600080fd5b50611fb6806100206000396000f3fe608060405234801561001057600080fd5b506004361061009e5760003560e01c806397f15c021161006657806397f15c02146101435780639bcff9ba1461015f578063e261f1e51461017b578063f4eff9da146101b6578063fbb62fe7146101d25761009e565b806302402589146100a357806313fe24f7146100d35780637192711f146100ef57806377d90c661461010b5780637b5484a814610127575b600080fd5b6100bd60048036038101906100b8919061134d565b610202565b6040516100ca91906113d7565b60405180910390f35b6100ed60048036038101906100e8919061155d565b610428565b005b61010960048036038101906101049190611674565b61061f565b005b610125600480360381019061012091906116b4565b61070d565b005b610141600480360381019061013c9190611674565b610837565b005b61015d600480360381019061015891906116e1565b610974565b005b61017960048036038101906101749190611674565b610a86565b005b610195600480360381019061019091906116b4565b610bc3565b6040516101ad9c9b9a99989796959493929190611855565b60405180910390f35b6101d060048036038101906101cb9190611674565b610d80565b005b6101ec60048036038101906101e791906116b4565b610e6e565b6040516101f99190611a9f565b60405180910390f35b60006001600081548092919061021790611af0565b919050555060405180610180016040528060015481526020018781526020018681526020018581526020018473ffffffffffffffffffffffffffffffffffffffff16815260200183815260200160008152602001428152602001600073ffffffffffffffffffffffffffffffffffffffff168152602001604051806020016040528060008152508152602001604051806020016040528060008152508152602001600060058111156102cc576102cb6117de565b5b81525060008060015481526020019081526020016000206000820151816000015560208201518160010155604082015181600201556060820151816003015560808201518160040160006101000a81548173ffffffffffffffffffffffffffffffffffffffff021916908373ffffffffffffffffffffffffffffffffffffffff16021790555060a0820151816005015560c0820151816006015560e082015181600701556101008201518160080160006101000a81548173ffffffffffffffffffffffffffffffffffffffff021916908373ffffffffffffffffffffffffffffffffffffffff1602179055506101208201518160090190816103ce9190611d44565b5061014082015181600a0190816103e59190611d44565b5061016082015181600b0160006101000a81548160ff02191690836005811115610412576104116117de565b5b0217905550905050600154905095945050505050565b60008060008c81526020019081526020016000206000015403610480576040517f08c379a000000000000000000000000000000000000000000000000000000000815260040161047790611e62565b60405180910390fd5b886000808c815260200190815260200160002060010181905550876000808c815260200190815260200160002060020181905550866000808c815260200190815260200160002060030181905550856000808c815260200190815260200160002060040160006101000a81548173ffffffffffffffffffffffffffffffffffffffff021916908373ffffffffffffffffffffffffffffffffffffffff160217905550846000808c815260200190815260200160002060050181905550836000808c815260200190815260200160002060080160006101000a81548173ffffffffffffffffffffffffffffffffffffffff021916908373ffffffffffffffffffffffffffffffffffffffff160217905550826000808c815260200190815260200160002060090190816105b29190611d44565b50816000808c8152602001908152602001600020600a0190816105d59190611d44565b50806000808c8152602001908152602001600020600b0160006101000a81548160ff0219169083600581111561060e5761060d6117de565b5b021790555050505050505050505050565b60008060008481526020019081526020016000206000015403610677576040517f08c379a000000000000000000000000000000000000000000000000000000000815260040161066e90611e62565b60405180910390fd5b8060008084815260200190815260200160002060040160006101000a81548173ffffffffffffffffffffffffffffffffffffffff021916908373ffffffffffffffffffffffffffffffffffffffff1602179055506005600080848152602001908152602001600020600b0160006101000a81548160ff02191690836005811115610704576107036117de565b5b02179055505050565b60008060008381526020019081526020016000206000015403610765576040517f08c379a000000000000000000000000000000000000000000000000000000000815260040161075c90611e62565b60405180910390fd5b6000808281526020019081526020016000206000808201600090556001820160009055600282016000905560038201600090556004820160006101000a81549073ffffffffffffffffffffffffffffffffffffffff02191690556005820160009055600682016000905560078201600090556008820160006101000a81549073ffffffffffffffffffffffffffffffffffffffff021916905560098201600061080e91906111a9565b600a8201600061081e91906111a9565b600b820160006101000a81549060ff0219169055505050565b6000806000848152602001908152602001600020600001540361088f576040517f08c379a000000000000000000000000000000000000000000000000000000000815260040161088690611e62565b60405180910390fd5b8073ffffffffffffffffffffffffffffffffffffffff1660008084815260200190815260200160002060040160009054906101000a900473ffffffffffffffffffffffffffffffffffffffff1673ffffffffffffffffffffffffffffffffffffffff1614610932576040517f08c379a000000000000000000000000000000000000000000000000000000000815260040161092990611ece565b60405180910390fd5b6002600080848152602001908152602001600020600b0160006101000a81548160ff0219169083600581111561096b5761096a6117de565b5b02179055505050565b600080600085815260200190815260200160002060000154036109cc576040517f08c379a00000000000000000000000000000000000000000000000000000000081526004016109c390611e62565b60405180910390fd5b8160008085815260200190815260200160002060080160006101000a81548173ffffffffffffffffffffffffffffffffffffffff021916908373ffffffffffffffffffffffffffffffffffffffff1602179055506003600080858152602001908152602001600020600b0160006101000a81548160ff02191690836005811115610a5957610a586117de565b5b021790555080600080858152602001908152602001600020600a019081610a809190611d44565b50505050565b60008060008481526020019081526020016000206000015403610ade576040517f08c379a0000000000000000000000000000000000000000000000000000000008152600401610ad590611e62565b60405180910390fd5b8073ffffffffffffffffffffffffffffffffffffffff1660008084815260200190815260200160002060040160009054906101000a900473ffffffffffffffffffffffffffffffffffffffff1673ffffffffffffffffffffffffffffffffffffffff1614610b81576040517f08c379a0000000000000000000000000000000000000000000000000000000008152600401610b7890611f60565b60405180910390fd5b6004600080848152602001908152602001600020600b0160006101000a81548160ff02191690836005811115610bba57610bb96117de565b5b02179055505050565b60006020528060005260406000206000915090508060000154908060010154908060020154908060030154908060040160009054906101000a900473ffffffffffffffffffffffffffffffffffffffff16908060050154908060060154908060070154908060080160009054906101000a900473ffffffffffffffffffffffffffffffffffffffff1690806009018054610c5c90611b67565b80601f0160208091040260200160405190810160405280929190818152602001828054610c8890611b67565b8015610cd55780601f10610caa57610100808354040283529160200191610cd5565b820191906000526020600020905b815481529060010190602001808311610cb857829003601f168201915b50505050509080600a018054610cea90611b67565b80601f0160208091040260200160405190810160405280929190818152602001828054610d1690611b67565b8015610d635780601f10610d3857610100808354040283529160200191610d63565b820191906000526020600020905b815481529060010190602001808311610d4657829003601f168201915b50505050509080600b0160009054906101000a900460ff1690508c565b60008060008481526020019081526020016000206000015403610dd8576040517f08c379a0000000000000000000000000000000000000000000000000000000008152600401610dcf90611e62565b60405180910390fd5b8060008084815260200190815260200160002060080160006101000a81548173ffffffffffffffffffffffffffffffffffffffff021916908373ffffffffffffffffffffffffffffffffffffffff1602179055506002600080848152602001908152602001600020600b0160006101000a81548160ff02191690836005811115610e6557610e646117de565b5b02179055505050565b610e766111e9565b60008060008481526020019081526020016000206000015403610ece576040517f08c379a0000000000000000000000000000000000000000000000000000000008152600401610ec590611e62565b60405180910390fd5b60405180610180016040528083815260200160008085815260200190815260200160002060010154815260200160008085815260200190815260200160002060020154815260200160008085815260200190815260200160002060030154815260200160008085815260200190815260200160002060040160009054906101000a900473ffffffffffffffffffffffffffffffffffffffff1673ffffffffffffffffffffffffffffffffffffffff16815260200160008085815260200190815260200160002060050154815260200160008085815260200190815260200160002060060154815260200160008085815260200190815260200160002060070154815260200160008085815260200190815260200160002060080160009054906101000a900473ffffffffffffffffffffffffffffffffffffffff1673ffffffffffffffffffffffffffffffffffffffff168152602001600080858152602001908152602001600020600901805461104490611b67565b80601f016020809104026020016040519081016040528092919081815260200182805461107090611b67565b80156110bd5780601f10611092576101008083540402835291602001916110bd565b820191906000526020600020905b8154815290600101906020018083116110a057829003601f168201915b50505050508152602001600080858152602001908152602001600020600a0180546110e790611b67565b80601f016020809104026020016040519081016040528092919081815260200182805461111390611b67565b80156111605780601f1061113557610100808354040283529160200191611160565b820191906000526020600020905b81548152906001019060200180831161114357829003601f168201915b50505050508152602001600080858152602001908152602001600020600b0160009054906101000a900460ff16600581111561119f5761119e6117de565b5b8152509050919050565b5080546111b590611b67565b6000825580601f106111c757506111e6565b601f0160209004906000526020600020908101906111e59190611288565b5b50565b60405180610180016040528060008152602001600081526020016000815260200160008152602001600073ffffffffffffffffffffffffffffffffffffffff168152602001600081526020016000815260200160008152602001600073ffffffffffffffffffffffffffffffffffffffff168152602001606081526020016060815260200160006005811115611282576112816117de565b5b81525090565b5b808211156112a1576000816000905550600101611289565b5090565b6000604051905090565b600080fd5b600080fd5b6000819050919050565b6112cc816112b9565b81146112d757600080fd5b50565b6000813590506112e9816112c3565b92915050565b600073ffffffffffffffffffffffffffffffffffffffff82169050919050565b600061131a826112ef565b9050919050565b61132a8161130f565b811461133557600080fd5b50565b60008135905061134781611321565b92915050565b600080600080600060a08688031215611369576113686112af565b5b6000611377888289016112da565b9550506020611388888289016112da565b9450506040611399888289016112da565b93505060606113aa88828901611338565b92505060806113bb888289016112da565b9150509295509295909350565b6113d1816112b9565b82525050565b60006020820190506113ec60008301846113c8565b92915050565b600080fd5b600080fd5b6000601f19601f8301169050919050565b7f4e487b7100000000000000000000000000000000000000000000000000000000600052604160045260246000fd5b611445826113fc565b810181811067ffffffffffffffff821117156114645761146361140d565b5b80604052505050565b60006114776112a5565b9050611483828261143c565b919050565b600067ffffffffffffffff8211156114a3576114a261140d565b5b6114ac826113fc565b9050602081019050919050565b82818337600083830152505050565b60006114db6114d684611488565b61146d565b9050828152602081018484840111156114f7576114f66113f7565b5b6115028482856114b9565b509392505050565b600082601f83011261151f5761151e6113f2565b5b813561152f8482602086016114c8565b91505092915050565b6006811061154557600080fd5b50565b60008135905061155781611538565b92915050565b6000806000806000806000806000806101408b8d031215611581576115806112af565b5b600061158f8d828e016112da565b9a505060206115a08d828e016112da565b99505060406115b18d828e016112da565b98505060606115c28d828e016112da565b97505060806115d38d828e01611338565b96505060a06115e48d828e016112da565b95505060c06115f58d828e01611338565b94505060e08b013567ffffffffffffffff811115611616576116156112b4565b5b6116228d828e0161150a565b9350506101008b013567ffffffffffffffff811115611644576116436112b4565b5b6116508d828e0161150a565b9250506101206116628d828e01611548565b9150509295989b9194979a5092959850565b6000806040838503121561168b5761168a6112af565b5b6000611699858286016112da565b92505060206116aa85828601611338565b9150509250929050565b6000602082840312156116ca576116c96112af565b5b60006116d8848285016112da565b91505092915050565b6000806000606084860312156116fa576116f96112af565b5b6000611708868287016112da565b935050602061171986828701611338565b925050604084013567ffffffffffffffff81111561173a576117396112b4565b5b6117468682870161150a565b9150509250925092565b6117598161130f565b82525050565b600081519050919050565b600082825260208201905092915050565b60005b8381101561179957808201518184015260208101905061177e565b60008484015250505050565b60006117b08261175f565b6117ba818561176a565b93506117ca81856020860161177b565b6117d3816113fc565b840191505092915050565b7f4e487b7100000000000000000000000000000000000000000000000000000000600052602160045260246000fd5b6006811061181e5761181d6117de565b5b50565b600081905061182f8261180d565b919050565b600061183f82611821565b9050919050565b61184f81611834565b82525050565b60006101808201905061186b600083018f6113c8565b611878602083018e6113c8565b611885604083018d6113c8565b611892606083018c6113c8565b61189f608083018b611750565b6118ac60a083018a6113c8565b6118b960c08301896113c8565b6118c660e08301886113c8565b6118d4610100830187611750565b8181036101208301526118e781866117a5565b90508181036101408301526118fc81856117a5565b905061190c610160830184611846565b9d9c50505050505050505050505050565b611926816112b9565b82525050565b6119358161130f565b82525050565b600082825260208201905092915050565b60006119578261175f565b611961818561193b565b935061197181856020860161177b565b61197a816113fc565b840191505092915050565b61198e81611834565b82525050565b6000610180830160008301516119ad600086018261191d565b5060208301516119c0602086018261191d565b5060408301516119d3604086018261191d565b5060608301516119e6606086018261191d565b5060808301516119f9608086018261192c565b5060a0830151611a0c60a086018261191d565b5060c0830151611a1f60c086018261191d565b5060e0830151611a3260e086018261191d565b50610100830151611a4761010086018261192c565b50610120830151848203610120860152611a61828261194c565b915050610140830151848203610140860152611a7d828261194c565b915050610160830151611a94610160860182611985565b508091505092915050565b60006020820190508181036000830152611ab98184611994565b905092915050565b7f4e487b7100000000000000000000000000000000000000000000000000000000600052601160045260246000fd5b6000611afb826112b9565b91507fffffffffffffffffffffffffffffffffffffffffffffffffffffffffffffffff8203611b2d57611b2c611ac1565b5b600182019050919050565b7f4e487b7100000000000000000000000000000000000000000000000000000000600052602260045260246000fd5b60006002820490506001821680611b7f57607f821691505b602082108103611b9257611b91611b38565b5b50919050565b60008190508160005260206000209050919050565b60006020601f8301049050919050565b600082821b905092915050565b600060088302611bfa7fffffffffffffffffffffffffffffffffffffffffffffffffffffffffffffffff82611bbd565b611c048683611bbd565b95508019841693508086168417925050509392505050565b6000819050919050565b6000611c41611c3c611c37846112b9565b611c1c565b6112b9565b9050919050565b6000819050919050565b611c5b83611c26565b611c6f611c6782611c48565b848454611bca565b825550505050565b600090565b611c84611c77565b611c8f818484611c52565b505050565b5b81811015611cb357611ca8600082611c7c565b600181019050611c95565b5050565b601f821115611cf857611cc981611b98565b611cd284611bad565b81016020851015611ce1578190505b611cf5611ced85611bad565b830182611c94565b50505b505050565b600082821c905092915050565b6000611d1b60001984600802611cfd565b1980831691505092915050565b6000611d348383611d0a565b9150826002028217905092915050565b611d4d8261175f565b67ffffffffffffffff811115611d6657611d6561140d565b5b611d708254611b67565b611d7b828285611cb7565b600060209050601f831160018114611dae5760008415611d9c578287015190505b611da68582611d28565b865550611e0e565b601f198416611dbc86611b98565b60005b82811015611de457848901518255600182019150602085019450602081019050611dbf565b86831015611e015784890151611dfd601f891682611d0a565b8355505b6001600288020188555050505b505050505050565b7f4c616e6420646f6573206e6f7420657869737400000000000000000000000000600082015250565b6000611e4c60138361176a565b9150611e5782611e16565b602082019050919050565b60006020820190508181036000830152611e7b81611e3f565b9050919050565b7f6f6e6c79206f776e65722068697320616c6c6f77656400000000000000000000600082015250565b6000611eb860168361176a565b9150611ec382611e82565b602082019050919050565b60006020820190508181036000830152611ee781611eab565b9050919050565b7f6f6e6c79206f776e65722063616e206d616b6520617661696c61626c6520746f60008201527f2073656c6c000000000000000000000000000000000000000000000000000000602082015250565b6000611f4a60258361176a565b9150611f5582611eee565b604082019050919050565b60006020820190508181036000830152611f7981611f3d565b905091905056fea26469706673582212207ddaec60f19884756b4d34c9738c66988accc10b870c12712b6032fc525d1fac64736f6c63430008120033",
  "immutableReferences": {},
  "source": "// SPDX-License-Identifier: MIT\r\npragma solidity >=0.4.22 <0.9.0;\r\n\r\n\r\ncontract Property {\r\n    \r\n\r\n    // Created   : Represents, inintal state, when property details are added by user\r\n    // Scheduled : Represents, when correponding surveyer scheduled for verification\r\n    // Rejected  : Represents, property is rejected by surveyer\r\n    // Verified  : Represents, property is verified.\r\n    enum StateOfProperty { \r\n        Created, \r\n        Scheduled, \r\n        Verified, \r\n        Rejected,\r\n        OnSale,\r\n        Bought\r\n        }\r\n    \r\n\r\n    struct Land {\r\n        uint256 propertyId;\r\n        uint256 locationId;\r\n        uint256 revenueDepartmentId;\r\n        uint256 surveyNumber;\r\n        address owner;\r\n        uint256 area;\r\n        uint256 price;\r\n        uint256 registeredTime;\r\n        address employeeId;\r\n        string scheduledDate;\r\n        string rejectedReason;\r\n        StateOfProperty state;\r\n    }\r\n    \r\n\r\n    // property Id ==> property\r\n    mapping(uint256 => Land) public lands;\r\n\r\n    // used to generate property id\r\n    uint256 private landCount;\r\n    \r\n    \r\n    \r\n    function addLand(\r\n        uint256 _locationId,\r\n        uint256 _revenueDepartmentId,\r\n        uint256 _surveyNumber,\r\n        address _owner,\r\n        uint256 _area\r\n    ) public returns (uint256) {\r\n        landCount++;\r\n\r\n        lands[landCount] = Land({\r\n            propertyId: landCount,\r\n            locationId: _locationId,\r\n            revenueDepartmentId: _revenueDepartmentId,\r\n            surveyNumber: _surveyNumber,\r\n            owner: _owner,\r\n            area: _area,\r\n            price:0,\r\n            registeredTime: block.timestamp,\r\n            employeeId: address(0),\r\n            scheduledDate: \"\",\r\n            rejectedReason: \"\",\r\n            state: StateOfProperty.Created\r\n        });\r\n        // return propertyId\r\n        return landCount;\r\n    }\r\n\r\n\r\n    function getLandDetailsAsStruct(uint256 _propertyId) public view returns (Land memory){\r\n        require(lands[_propertyId].propertyId != 0, \"Land does not exist\");\r\n\r\n    \r\n        return (Land({\r\n            propertyId: _propertyId,\r\n            locationId: lands[_propertyId].locationId,\r\n            revenueDepartmentId: lands[_propertyId].revenueDepartmentId,\r\n            surveyNumber: lands[_propertyId].surveyNumber,\r\n            owner: lands[_propertyId].owner,\r\n            area: lands[_propertyId].area,\r\n            price:lands[_propertyId].price,\r\n            registeredTime: lands[_propertyId].registeredTime,\r\n            employeeId: lands[_propertyId].employeeId,\r\n            scheduledDate: lands[_propertyId].scheduledDate,\r\n            rejectedReason: lands[_propertyId].rejectedReason,\r\n            state: lands[_propertyId].state\r\n        }));\r\n\r\n    }\r\n\r\n    \r\n    function removeLand(uint256 _propertyId) public {\r\n        require(lands[_propertyId].propertyId != 0, \"Land does not exist\");\r\n        delete lands[_propertyId];\r\n    }\r\n    \r\n    function updateLand(\r\n        uint256 _propertyId,\r\n        uint256 _locationId,\r\n        uint256 _revenueDepartmentId,\r\n        uint256 _surveyNumber,\r\n        address _owner,\r\n        uint256 _area,\r\n        address _employeeId,\r\n        string memory _scheduledDate,\r\n        string memory _rejectedReason,\r\n        StateOfProperty _state\r\n    ) public {\r\n        require(lands[_propertyId].propertyId != 0, \"Land does not exist\");\r\n        \r\n        lands[_propertyId].locationId = _locationId;\r\n        lands[_propertyId].revenueDepartmentId = _revenueDepartmentId;\r\n        lands[_propertyId].surveyNumber = _surveyNumber;\r\n        lands[_propertyId].owner = _owner;\r\n        lands[_propertyId].area = _area;\r\n        lands[_propertyId].employeeId = _employeeId;\r\n        lands[_propertyId].scheduledDate = _scheduledDate;\r\n        lands[_propertyId].rejectedReason = _rejectedReason;\r\n        lands[_propertyId].state = _state;\r\n    }\r\n\r\n\r\n    function changeStateToVerifed(\r\n        uint256 _propertyId,\r\n        address _employeeId\r\n    ) public {\r\n        require(lands[_propertyId].propertyId != 0, \"Land does not exist\");\r\n\r\n        lands[_propertyId].employeeId = _employeeId;\r\n        lands[_propertyId].state = StateOfProperty.Verified;\r\n    }\r\n\r\n     function changeStateToRejected(\r\n        uint256 _propertyId,\r\n        address _employeeId,\r\n        string memory _reason\r\n    ) public {\r\n        require(lands[_propertyId].propertyId != 0, \"Land does not exist\");\r\n\r\n        lands[_propertyId].employeeId = _employeeId;\r\n        lands[_propertyId].state = StateOfProperty.Rejected;\r\n        lands[_propertyId].rejectedReason = _reason;\r\n    }\r\n\r\n   \r\n    function changeStateToOnSale(\r\n        uint256 _propertyId,\r\n        address _owner\r\n    ) public {\r\n        require(lands[_propertyId].propertyId != 0, \"Land does not exist\");\r\n        require(lands[_propertyId].owner == _owner, \"only owner can make available to sell\" );\r\n\r\n        lands[_propertyId].state = StateOfProperty.OnSale;\r\n    }\r\n\r\n\r\n    // function to change state from on sale to verified \r\n    // when sale is canceled from active state\r\n    function changeStateBackToVerificed(\r\n        uint256 _propertyId,\r\n        address _owner\r\n    ) public {\r\n        require(lands[_propertyId].propertyId != 0, \"Land does not exist\");\r\n        require(lands[_propertyId].owner == _owner, \"only owner his allowed\" );\r\n\r\n        lands[_propertyId].state = StateOfProperty.Verified;\r\n    }\r\n\r\n\r\n    function updateOwner(\r\n        uint256 _propertyId,\r\n        address newOwner\r\n    ) public {\r\n        require(lands[_propertyId].propertyId != 0, \"Land does not exist\");\r\n\r\n        // changing new owner\r\n        lands[_propertyId].owner = newOwner;\r\n\r\n        // changing state back to verified \r\n        // after successful ownership transfer\r\n        lands[_propertyId].state = StateOfProperty.Bought;\r\n\r\n        \r\n    }\r\n\r\n}\r\n",
  "sourcePath": "E:\\Major_Project\\Code\\Smart_contracts\\contracts\\Properties.sol",
  "compiler": {
    "name": "solc",
    "version": "0.8.18+commit.87f61d96.Emscripten.clang"
  },
  "schemaVersion": "3.4.12",
  "updatedAt": "2023-04-16T18:11:37.965Z",
  "devdoc": {
    "kind": "dev",
    "methods": {},
    "version": 1
  },
  "userdoc": {
    "kind": "user",
    "methods": {},
    "version": 1
  }
}