{
  "contractName": "Users",
  "abi": [
    {
      "anonymous": false,
      "inputs": [
        {
          "indexed": true,
          "internalType": "address",
          "name": "userID",
          "type": "address"
        },
        {
          "indexed": true,
          "internalType": "uint256",
          "name": "accountCreatedDateTime",
          "type": "uint256"
        }
      ],
      "name": "UserRegistered",
      "type": "event"
    },
    {
      "inputs": [
        {
          "internalType": "address",
          "name": "",
          "type": "address"
        }
      ],
      "name": "users",
      "outputs": [
        {
          "internalType": "address",
          "name": "userID",
          "type": "address"
        },
        {
          "internalType": "string",
          "name": "firstName",
          "type": "string"
        },
        {
          "internalType": "string",
          "name": "lastName",
          "type": "string"
        },
        {
          "internalType": "string",
          "name": "dateOfBirth",
          "type": "string"
        },
        {
          "internalType": "string",
          "name": "aadharNumber",
          "type": "string"
        },
        {
          "internalType": "uint256",
          "name": "accountCreatedDateTime",
          "type": "uint256"
        }
      ],
      "stateMutability": "view",
      "type": "function",
      "constant": true
    },
    {
      "inputs": [
        {
          "internalType": "string",
          "name": "_firstName",
          "type": "string"
        },
        {
          "internalType": "string",
          "name": "_lastName",
          "type": "string"
        },
        {
          "internalType": "string",
          "name": "_dateOfBirth",
          "type": "string"
        },
        {
          "internalType": "string",
          "name": "_aadharNumber",
          "type": "string"
        }
      ],
      "name": "registerUser",
      "outputs": [],
      "stateMutability": "nonpayable",
      "type": "function"
    },
    {
      "inputs": [
        {
          "internalType": "address",
          "name": "_userId",
          "type": "address"
        }
      ],
      "name": "getUserDetails",
      "outputs": [
        {
          "internalType": "string",
          "name": "firstName",
          "type": "string"
        },
        {
          "internalType": "string",
          "name": "lastName",
          "type": "string"
        },
        {
          "internalType": "string",
          "name": "dateOfBirth",
          "type": "string"
        },
        {
          "internalType": "string",
          "name": "aadharNumber",
          "type": "string"
        },
        {
          "internalType": "uint256",
          "name": "accountCreated",
          "type": "uint256"
        }
      ],
      "stateMutability": "view",
      "type": "function",
      "constant": true
    }
  ],
  "bytecode": "0x608060405234801561001057600080fd5b506112c5806100206000396000f3fe608060405234801561001057600080fd5b50600436106100415760003560e01c806393e54a5614610046578063a87430ba14610062578063cc3d967b14610097575b600080fd5b610060600480360381019061005b9190610b25565b6100cb565b005b61007c60048036038101906100779190610c5a565b6103db565b60405161008e96959493929190610d2e565b60405180910390f35b6100b160048036038101906100ac9190610c5a565b610657565b6040516100c2959493929190610dab565b60405180910390f35b600015156000803373ffffffffffffffffffffffffffffffffffffffff1673ffffffffffffffffffffffffffffffffffffffff16815260200190815260200160002060009054906101000a900460ff1615151461015d576040517f08c379a000000000000000000000000000000000000000000000000000000000815260040161015490610e66565b60405180910390fd5b600015156002826040516101719190610ec2565b908152602001604051809103902060009054906101000a900460ff161515146101cf576040517f08c379a00000000000000000000000000000000000000000000000000000000081526004016101c690610f25565b60405180910390fd5b60006040518060c001604052803373ffffffffffffffffffffffffffffffffffffffff16815260200186815260200185815260200184815260200183815260200142815250905080600160003373ffffffffffffffffffffffffffffffffffffffff1673ffffffffffffffffffffffffffffffffffffffff16815260200190815260200160002060008201518160000160006101000a81548173ffffffffffffffffffffffffffffffffffffffff021916908373ffffffffffffffffffffffffffffffffffffffff16021790555060208201518160010190816102b29190611151565b5060408201518160020190816102c89190611151565b5060608201518160030190816102de9190611151565b5060808201518160040190816102f49190611151565b5060a0820151816005015590505060016000803373ffffffffffffffffffffffffffffffffffffffff1673ffffffffffffffffffffffffffffffffffffffff16815260200190815260200160002060006101000a81548160ff021916908315150217905550600160028360405161036b9190610ec2565b908152602001604051809103902060006101000a81548160ff021916908315150217905550423373ffffffffffffffffffffffffffffffffffffffff167fe29d35093005f4d575e1003753426b57a7f64378ba73332eef9c6ccc2b8decd660405160405180910390a35050505050565b60016020528060005260406000206000915090508060000160009054906101000a900473ffffffffffffffffffffffffffffffffffffffff169080600101805461042490610f74565b80601f016020809104026020016040519081016040528092919081815260200182805461045090610f74565b801561049d5780601f106104725761010080835404028352916020019161049d565b820191906000526020600020905b81548152906001019060200180831161048057829003601f168201915b5050505050908060020180546104b290610f74565b80601f01602080910402602001604051908101604052809291908181526020018280546104de90610f74565b801561052b5780601f106105005761010080835404028352916020019161052b565b820191906000526020600020905b81548152906001019060200180831161050e57829003601f168201915b50505050509080600301805461054090610f74565b80601f016020809104026020016040519081016040528092919081815260200182805461056c90610f74565b80156105b95780601f1061058e576101008083540402835291602001916105b9565b820191906000526020600020905b81548152906001019060200180831161059c57829003601f168201915b5050505050908060040180546105ce90610f74565b80601f01602080910402602001604051908101604052809291908181526020018280546105fa90610f74565b80156106475780601f1061061c57610100808354040283529160200191610647565b820191906000526020600020905b81548152906001019060200180831161062a57829003601f168201915b5050505050908060050154905086565b60608060608060008073ffffffffffffffffffffffffffffffffffffffff16600160008873ffffffffffffffffffffffffffffffffffffffff1673ffffffffffffffffffffffffffffffffffffffff16815260200190815260200160002060000160009054906101000a900473ffffffffffffffffffffffffffffffffffffffff1673ffffffffffffffffffffffffffffffffffffffff160361072f576040517f08c379a00000000000000000000000000000000000000000000000000000000081526004016107269061126f565b60405180910390fd5b6000600160008873ffffffffffffffffffffffffffffffffffffffff1673ffffffffffffffffffffffffffffffffffffffff168152602001908152602001600020905080600101816002018260030183600401846005015484805461079390610f74565b80601f01602080910402602001604051908101604052809291908181526020018280546107bf90610f74565b801561080c5780601f106107e15761010080835404028352916020019161080c565b820191906000526020600020905b8154815290600101906020018083116107ef57829003601f168201915b5050505050945083805461081f90610f74565b80601f016020809104026020016040519081016040528092919081815260200182805461084b90610f74565b80156108985780601f1061086d57610100808354040283529160200191610898565b820191906000526020600020905b81548152906001019060200180831161087b57829003601f168201915b505050505093508280546108ab90610f74565b80601f01602080910402602001604051908101604052809291908181526020018280546108d790610f74565b80156109245780601f106108f957610100808354040283529160200191610924565b820191906000526020600020905b81548152906001019060200180831161090757829003601f168201915b5050505050925081805461093790610f74565b80601f016020809104026020016040519081016040528092919081815260200182805461096390610f74565b80156109b05780601f10610985576101008083540402835291602001916109b0565b820191906000526020600020905b81548152906001019060200180831161099357829003601f168201915b50505050509150955095509550955095505091939590929450565b6000604051905090565b600080fd5b600080fd5b600080fd5b600080fd5b6000601f19601f8301169050919050565b7f4e487b7100000000000000000000000000000000000000000000000000000000600052604160045260246000fd5b610a32826109e9565b810181811067ffffffffffffffff82111715610a5157610a506109fa565b5b80604052505050565b6000610a646109cb565b9050610a708282610a29565b919050565b600067ffffffffffffffff821115610a9057610a8f6109fa565b5b610a99826109e9565b9050602081019050919050565b82818337600083830152505050565b6000610ac8610ac384610a75565b610a5a565b905082815260208101848484011115610ae457610ae36109e4565b5b610aef848285610aa6565b509392505050565b600082601f830112610b0c57610b0b6109df565b5b8135610b1c848260208601610ab5565b91505092915050565b60008060008060808587031215610b3f57610b3e6109d5565b5b600085013567ffffffffffffffff811115610b5d57610b5c6109da565b5b610b6987828801610af7565b945050602085013567ffffffffffffffff811115610b8a57610b896109da565b5b610b9687828801610af7565b935050604085013567ffffffffffffffff811115610bb757610bb66109da565b5b610bc387828801610af7565b925050606085013567ffffffffffffffff811115610be457610be36109da565b5b610bf087828801610af7565b91505092959194509250565b600073ffffffffffffffffffffffffffffffffffffffff82169050919050565b6000610c2782610bfc565b9050919050565b610c3781610c1c565b8114610c4257600080fd5b50565b600081359050610c5481610c2e565b92915050565b600060208284031215610c7057610c6f6109d5565b5b6000610c7e84828501610c45565b91505092915050565b610c9081610c1c565b82525050565b600081519050919050565b600082825260208201905092915050565b60005b83811015610cd0578082015181840152602081019050610cb5565b60008484015250505050565b6000610ce782610c96565b610cf18185610ca1565b9350610d01818560208601610cb2565b610d0a816109e9565b840191505092915050565b6000819050919050565b610d2881610d15565b82525050565b600060c082019050610d436000830189610c87565b8181036020830152610d558188610cdc565b90508181036040830152610d698187610cdc565b90508181036060830152610d7d8186610cdc565b90508181036080830152610d918185610cdc565b9050610da060a0830184610d1f565b979650505050505050565b600060a0820190508181036000830152610dc58188610cdc565b90508181036020830152610dd98187610cdc565b90508181036040830152610ded8186610cdc565b90508181036060830152610e018185610cdc565b9050610e106080830184610d1f565b9695505050505050565b7f5573657220616c72656164792072656769737465726564000000000000000000600082015250565b6000610e50601783610ca1565b9150610e5b82610e1a565b602082019050919050565b60006020820190508181036000830152610e7f81610e43565b9050919050565b600081905092915050565b6000610e9c82610c96565b610ea68185610e86565b9350610eb6818560208601610cb2565b80840191505092915050565b6000610ece8284610e91565b915081905092915050565b7f416164686172206e756d62657220616c72656164792072656769737465726564600082015250565b6000610f0f602083610ca1565b9150610f1a82610ed9565b602082019050919050565b60006020820190508181036000830152610f3e81610f02565b9050919050565b7f4e487b7100000000000000000000000000000000000000000000000000000000600052602260045260246000fd5b60006002820490506001821680610f8c57607f821691505b602082108103610f9f57610f9e610f45565b5b50919050565b60008190508160005260206000209050919050565b60006020601f8301049050919050565b600082821b905092915050565b6000600883026110077fffffffffffffffffffffffffffffffffffffffffffffffffffffffffffffffff82610fca565b6110118683610fca565b95508019841693508086168417925050509392505050565b6000819050919050565b600061104e61104961104484610d15565b611029565b610d15565b9050919050565b6000819050919050565b61106883611033565b61107c61107482611055565b848454610fd7565b825550505050565b600090565b611091611084565b61109c81848461105f565b505050565b5b818110156110c0576110b5600082611089565b6001810190506110a2565b5050565b601f821115611105576110d681610fa5565b6110df84610fba565b810160208510156110ee578190505b6111026110fa85610fba565b8301826110a1565b50505b505050565b600082821c905092915050565b60006111286000198460080261110a565b1980831691505092915050565b60006111418383611117565b9150826002028217905092915050565b61115a82610c96565b67ffffffffffffffff811115611173576111726109fa565b5b61117d8254610f74565b6111888282856110c4565b600060209050601f8311600181146111bb57600084156111a9578287015190505b6111b38582611135565b86555061121b565b601f1984166111c986610fa5565b60005b828110156111f1578489015182556001820191506020850194506020810190506111cc565b8683101561120e578489015161120a601f891682611117565b8355505b6001600288020188555050505b505050505050565b7f5573657220646f6573206e6f7420657869737400000000000000000000000000600082015250565b6000611259601383610ca1565b915061126482611223565b602082019050919050565b600060208201905081810360008301526112888161124c565b905091905056fea2646970667358221220074193e7dd37a6d5977463a69e1c4ef613f54c018d3175641c652f0d8607752664736f6c63430008120033",
  "immutableReferences": {},
  "source": "// SPDX-License-Identifier: MIT\npragma solidity >=0.4.22 <0.9.0;\n\ncontract Users {\n  \n    struct User {\n        address userID;\n        string firstName;\n        string lastName;\n        string dateOfBirth;\n        string aadharNumber;\n        uint256 accountCreatedDateTime;\n    }\n\n    mapping(address => bool) private registeredUsers;\n    mapping(address => User) public users;\n    mapping(string => bool) private aadharNumbers;\n    \n    event UserRegistered(address indexed userID, uint256 indexed accountCreatedDateTime);\n\n    function registerUser(\n        string memory _firstName,\n        string memory _lastName,\n        string memory _dateOfBirth,\n        string memory _aadharNumber\n    ) public {\n        require(registeredUsers[msg.sender] == false, \"User already registered\");\n        require(aadharNumbers[_aadharNumber] == false, \"Aadhar number already registered\");\n\n        User memory newUser = User({\n            userID: msg.sender,\n            firstName: _firstName,\n            lastName: _lastName,\n            dateOfBirth: _dateOfBirth,\n            aadharNumber: _aadharNumber,\n            accountCreatedDateTime: block.timestamp\n        });\n\n        users[msg.sender] = newUser;\n        registeredUsers[msg.sender] = true;\n        aadharNumbers[_aadharNumber] = true;\n\n        emit UserRegistered(msg.sender, block.timestamp);\n    }\n\n\n    function getUserDetails(\n            address _userId\n        ) public view returns (\n            string memory firstName, \n            string memory lastName, \n            string memory dateOfBirth, \n            string memory aadharNumber, uint256 accountCreated\n            ) {\n\n        require(users[_userId].userID != address(0), \"User does not exist\");\n\n\n        User storage user = users[_userId];\n\n        return (user.firstName, user.lastName, user.dateOfBirth, user.aadharNumber, user.accountCreatedDateTime);\n}\n\n}\n",
  "sourcePath": "E:\\Major_Project\\Code\\Smart_contracts\\contracts\\Users.sol",
  "compiler": {
    "name": "solc",
    "version": "0.8.18+commit.87f61d96.Emscripten.clang"
  },
  "schemaVersion": "3.4.12",
  "updatedAt": "2023-04-16T18:12:44.294Z",
  "networkType": "ethereum",
  "devdoc": {
    "kind": "dev",
    "methods": {},
    "version": 1
  },
  "userdoc": {
    "kind": "user",
    "methods": {},
    "version": 1
  }
}